:100000000C942A000C9447000C9447000C94470071
:100010000C9447000C9447000C9447000C94470044
:100020000C9454000C9447000C9447000C94470027
:100030000C9447000C9447000C9447000C94470024
:100040000C9447000C9447000C9447000C94470014
:100050000C94470011241FBECFE5D4E0DEBFCDBF16
:1000600010E0A0E6B0E0E2E1F5E002C005900D92FC
:10007000A437B107D9F720E0A4E7B0E001C01D9292
:10008000AB37B207E1F70E94E0010C9487020C94B1
:1000900000008EB582608EBD1DBC1CBC89B784601B
:1000A00089BF10927A0008951F920F920FB60F9297
:1000B00011248F9380917A008F5F80937A008F91C3
:1000C0000F900FBE0F901F90189585BB81E082BBEB
:1000D0008FE99FE00197F1F700C0000012BA089580
:1000E00085BB85E082BB8FE99FE00197F1F700C0F7
:1000F000000084E082BB089581E00E94650086E0F4
:100100000E9465008CE00E94650088E30C94650005
:10011000CF93DF930E947C008091740090917500D2
:10012000CAE0D0E0BE010E945F02FB01E05AFF4F2F
:1001300080810E9470008091740090917500BE01D2
:100140000E945F02FC01E05AFF4F80810E94700014
:100150008AE30E9470008091760090917700BE0142
:100160000E945F02FB01E05AFF4F80810E947000F5
:100170008091760090917700BE010E945F02FC01A1
:10018000E05AFF4F80810E9470008AE30E94700055
:100190008091780090917900BE010E945F02FB017E
:1001A000E05AFF4F80810E9470008091780090910A
:1001B0007900BE010E945F02FC01E05AFF4F80817E
:1001C000DF91CF910C94700089B3843031F189B301
:1001D000813041F4809174009091750088319105CF
:1001E0000CF47BC089B3823079F7809174009091D0
:1001F00075001816190644F70197909375008093BF
:1002000074000E9488002FEF89E698E12150804019
:100210009040E1F700C00000D7CF2FEF83ED90E3CF
:10022000215080409040E1F700C0000089B3843045
:1002300021F189B3813041F480917600909177006B
:100240008B3391050CF45AC089B3823079F78091D1
:100250007600909177001816190644F7019790934D
:100260007700809376000E9488002FEF89E698E15E
:10027000215080409040E1F7D7CF2FEF83ED90E3FE
:10028000215080409040E1F700C0000089B38430E5
:1002900009F456C089B3813039F480917800909187
:1002A00079008B339105DCF189B3823079F7809145
:1002B0007800909179001816190644F701979093E9
:1002C0007900809378000E9488002FEF89E698E1FA
:1002D000215080409040E1F7D7CF01969093750070
:1002E000809374000E9488002FEF89E698E12150E6
:1002F00080409040E1F700C0000074CF01969093D9
:100300007700809376000E9488002FEF89E698E1BD
:10031000215080409040E1F700C0000095CF019649
:1003200090937900809378000E9488002FEF89E6EF
:1003300098E1215080409040E1F700C00000B4CF28
:100340000895EF92FF920F931F93CF93DF93CDB752
:10035000DEB729970FB6F894DEBF0FBECDBF0E945F
:100360007C0089E0EAE6F0E0DE01119601900D9252
:100370008A95E1F78E010F5F1F4F7E012AE0E20EA2
:10038000F11C0E151F0531F0F80181918F010E94BB
:100390007000F7CFFFEF23ED80E3F1502040804065
:1003A000E1F700C0000029960FB6F894DEBF0FBE3B
:1003B000CDBFDF91CF911F910F91FF90EF900895E6
:1003C0008FEF84BB81BB1ABA0E947C000E94880018
:1003D0000E94490078940E94E400CBE3D0E0809131
:1003E0007A008F30E0F38CB59DB580349244B8F339
:1003F0008091780090917900181619062CF40197D5
:1004000090937900809378008091780090917900A2
:100410001816190684F080917600909177001816CE
:1004200019064CF4D0937900C0937800019790930B
:10043000770080937600809178009091790018166B
:100440001906DCF080917600909177001816190655
:10045000A4F08091740090917500181619066CF440
:10046000D0937700C0937600D0937900C093780042
:10047000019790937500809374008091740090911F
:10048000750018161906A4F08091760090917700F7
:10049000181619066CF08091780090917900181662
:1004A000190634F00E94A1010E9488000E94E40015
:1004B0000E9488001DBC1CBC10927A0090CF97FB54
:1004C000072E16F4009407D077FD09D00E9473021E
:1004D00007FC05D03EF4909581959F4F0895709547
:1004E00061957F4F0895AA1BBB1B51E107C0AA1F4E
:1004F000BB1FA617B70710F0A61BB70B881F991FC5
:100500005A95A9F780959095BC01CD010895F8946E
:02051000FFCF1B
:100512003031323334353637383966696E6973684B
:04052200656400000C
:00000001FF
