:100000000C942A000C9434000C9434000C943400AA
:100010000C9434000C9434000C9434000C94340090
:100020000C9434000C9434000C9434000C94340080
:100030000C9434000C9434000C9434000C94340070
:100040000C9434000C9434000C9434000C94340060
:100050000C94340011241FBECFE5D4E0DEBFCDBF29
:100060000E9436000C944B000C9400001ABA81E0F8
:100070008BBB8FEF87BB18BAC899FECF88B380952A
:1000800088BB2FE986E891E0215080409040E1F75D
:0A00900000C00000F1CFF894FFCF8C
:00000001FF
