:100000000C942A000C9447000C9447000C94470071
:100010000C9447000C9447000C9447000C94470044
:100020000C9447000C9459000C9447000C94470022
:100030000C9447000C9447000C9447000C94470024
:100040000C9447000C9447000C9447000C94470014
:100050000C94470011241FBECFE5D4E0DEBFCDBF16
:1000600010E0A0E6B0E0EAE7F1E002C005900D92F2
:10007000A836B107D9F720E0A8E6B0E001C01D928C
:10008000AE36B207E1F70E947E000C94BB000C94E0
:10009000000083B7846083BF12BE89B7816089BFC7
:1000A000109268001092690010926A0010926B0022
:1000B00008951F920F920FB60F9211248F939F9362
:1000C000AF93BF938091680090916900A0916A00FE
:1000D000B0916B000196A11DB11D809368009093B3
:1000E0006900A0936A00B0936B00BF91AF919F919C
:1000F0008F910F900FBE0F901F9018958FEF8ABBB6
:1001000014BA83B38430E9F30E9449007894809153
:10011000680090916900A0916A00B0916B00CD9742
:10012000A105B105A0F382B7893088F3E0916C0096
:10013000F0916D00EE0FFF1FE05AFF4F80818BBBE7
:1001400080916C0090916D00833091052CF010929D
:100150006D0010926C0005C0019690936D00809325
:100160006C0012BE109268001092690010926A0032
:0A01700010926B00CCCFF894FFCF83
:08017A0009000A00060005005F
:00000001FF
