:100000000C942A000C9434000C9434000C943400AA
:100010000C9434000C9434000C9434000C94340090
:100020000C9434000C9434000C9434000C94340080
:100030000C9434000C9434000C9434000C94340070
:100040000C9434000C9434000C9434000C94340060
:100050000C94340011241FBECFE5D4E0DEBFCDBF29
:100060000E944D000C9482000C9400008BBB88B35E
:10007000836088BB87EA91E60197F1F700C0000032
:10008000C09808958BBBC198C09A81EE94E0019707
:10009000F1F700C00000C09808958FEF8ABB83E09D
:1000A00087BB88E30E94420086E00E9442008EE007
:1000B0000E94420081E00E94420080E80E944200CB
:1000C00088E40E94360085E40E9436008CE40E9499
:1000D00036008CE40E9436008FE40E94360080E2F5
:1000E0000E94360087E50E9436008FE40E943600A9
:1000F00082E50E9436008CE40E94360084E40E946F
:080100003600FFCFF894FFCF99
:00000001FF
