:100000000C942A000C9447000C9447000C94470071
:100010000C9447000C9447000C9447000C94470044
:100020000C9447000C9459000C9447000C94470022
:100030000C9447000C9447000C9447000C94470024
:100040000C9447000C9447000C9447000C94470014
:100050000C94470011241FBECFE5D4E0DEBFCDBF16
:1000600010E0A0E6B0E0E0E9F1E002C005900D92FA
:10007000A836B107D9F720E0A8E6B0E001C01D928C
:10008000AF36B207E1F70E947E000C94C6000C94D4
:10009000000083B7846083BF12BE89B7816089BFC7
:1000A000109268001092690010926A0010926B0022
:1000B00008951F920F920FB60F9211248F939F9362
:1000C000AF93BF938091680090916900A0916A00FE
:1000D000B0916B000196A11DB11D809368009093B3
:1000E0006900A0936A00B0936B00BF91AF919F919C
:1000F0008F910F900FBE0F901F9018958FEF8ABBB6
:1001000014BA0E944900789483B38430E9F321E063
:100110008091680090916900A0916A00B0916B0095
:10012000CD97A105B105A0F382B7893088F3E0919E
:100130006D00F0916E00EE0FFF1FE05AFF4F8081BF
:100140008BBB30916C0080916D0090916E003323D9
:1001500041F0181619061CF010926C000DC00197A2
:1001600007C0833091051CF020936C0005C00196F8
:1001700090936E0080936D0012BE109268001092F2
:10018000690010926A0010926B00C2CFF894FFCF02
:0801900009000A000600050049
:00000001FF
