:100000000C942A000C9447000C9447000C94470071
:100010000C9447000C9447000C9447000C94470044
:100020000C947C000C9447000C9447000C944700FF
:100030000C9447000C9447000C9447000C94470024
:100040000C9447000C9447000C9447000C94470014
:100050000C94470011241FBECFE5D4E0DEBFCDBF16
:1000600010E0A0E6B0E0E6E7F1E002C005900D92F6
:10007000AA36B107D9F720E0AAE6B0E001C01D9288
:10008000AC36B207E1F70E948D000C94B9000C94D5
:100090000000CF93DF93CDB7DEB72A970FB6F89461
:1000A000DEBF0FBECDBF2AE0E0E6F0E0DE01119634
:1000B00001900D922A95E1F721E030E02C0F3D1FD1
:1000C000820F931FFC018081082E000C990B2A9649
:1000D0000FB6F894DEBF0FBECDBFDF91CF9108956C
:1000E0008EB582608EBD1DBC1CBC89B7846089BF83
:1000F000789410926B0008951F920F920FB60F9292
:1001000011248F9380916B008F5F80936B008F9190
:100110000F900FBE0F901F9018958FEF84BB81BB7F
:1001200080E882BB80E090E00E94490085BB0E948D
:10013000700080916B008F30E0F38CB59DB58034FA
:100140009244B8F380916A00893018F010926A00E6
:1001500005C080916A008F5F80936A0080916A0079
:1001600090E00E94490085BB1DBC1CBC10926B0036
:06017000E0CFF894FFCF80
:0A017600C0F9A4B0999282F88090BD
:00000001FF
