:100000000C942A000C9447000C9447000C94470071
:100010000C9453000C9447000C9447000C94470038
:100020000C9447000C9447000C9447000C94470034
:100030000C9447000C9447000C9447000C94470024
:100040000C9447000C9447000C9447000C94470014
:100050000C94470011241FBECFE5D4E0DEBFCDBF16
:1000600010E0A0E6B0E0E6EBF2E002C005900D92F1
:10007000AA36B107D9F720E0AAE6B0E001C01D9288
:10008000A137B207E1F70E94E1000C9459010C94EA
:10009000000085B5866085BD14BC89B7806489BFC2
:1000A0001092700008951F920F920FB60F921124B4
:1000B0008F93809170008F5F809370008F910F906D
:1000C0000FBE0F901F90189585BB81E082BB8FE912
:1000D0009FE00197F1F700C0000012BA089585BBB8
:1000E00085E082BB8FE99FE00197F1F700C0000037
:1000F00084E082BB089581E00E94640086E00E9453
:1001000064008CE00E94640088E30C946400CF9348
:10011000DF9380916A0090916B00CAE0D0E0BE014D
:100120000E943101FB01E05AFF4F80810E946F0065
:1001300080916A0090916B00BE010E943101FC0128
:10014000E05AFF4F80810E946F008AE30E946F0097
:1001500080916C0090916D00BE010E943101FB0105
:10016000E05AFF4F80810E946F0080916C00909157
:100170006D00BE010E943101FC01E05AFF4F8081F9
:100180000E946F008AE30E946F0080916E00909140
:100190006F00BE010E943101FB01E05AFF4F8081D8
:1001A0000E946F0080916E0090916F00BE010E94CE
:1001B0003101FC01E05AFF4F8081DF91CF910C9417
:1001C0006F008FEF84BB81BB0E947B000E94870081
:1001D0000E9449007894809170008A37E0F384B5DA
:1001E0008231C8F380916E0090916F008B3391053E
:1001F00074F010926F0010926E0080916C009091DC
:100200006D00019690936D0080936C0005C001967F
:1002100090936F0080936E0080916C0090916D00C0
:10022000CB976CF010926D0010926C0080916A0078
:1002300090916B00019690936B0080936A0080917F
:100240006A0090916B000C9724F010926B00109252
:100250006A000E947B000E94870014BC109270000C
:10026000BACF97FB072E16F4009407D077FD09D07C
:100270000E94450107FC05D03EF4909581959F4F63
:100280000895709561957F4F0895AA1BBB1B51E19E
:1002900007C0AA1FBB1FA617B70710F0A61BB70BF6
:1002A000881F991F5A95A9F780959095BC01CD019B
:0602B0000895F894FFCF51
:0A02B6003031323334353637383931
:00000001FF
