:100000000C942A000C9434000C9434000C943400AA
:100010000C9434000C9434000C9434000C94340090
:100020000C9434000C9434000C9434000C94340080
:100030000C9434000C9434000C9434000C94340070
:100040000C9434000C9434000C9434000C94340060
:100050000C94340011241FBECFE5D4E0DEBFCDBF29
:100060000E9436000C9471000C9400001ABA81E0D2
:100070008BBB8FEF87BB18BA61E070E0C899FECFE9
:1000800080E090E048B39B01082E01C0220F0A9443
:10009000EAF7242B28BB2FE53AEE40E02150304010
:1000A0004040E1F700C0000001968830910551F70B
:1000B00087E090E038B3AB01082E01C0440F0A94EA
:1000C000EAF7242F2095232328BB2FE53AEE40E0C2
:1000D000215030404040E1F700C00000019750F748
:0600E000CDCFF894FFCF24
:00000001FF
