:100000000C942A000C9447000C9447000C94470071
:100010000C9447000C9447000C9447000C94470044
:100020000C9447000C9447000C9447000C94470034
:100030000C9447000C9447000C9447000C94470024
:100040000C9447000C9447000C9447000C94470014
:100050000C94470011241FBECFE5D4E0DEBFCDBF16
:1000600010E0A0E6B0E0E0EFF1E002C005900D92F4
:10007000AE39B107D9F720E0AEE9B0E001C01D927A
:10008000A03AB207E1F70E9487000C94F6000C94A6
:10009000000088BB81E082BB8FE39CE90197F1F708
:1000A00000C0000012BA089581E00E94490086E075
:1000B0000E9449008CE00E94490088E30C944900AA
:1000C000DC0135E024E0FC0101900020E9F73197E4
:1000D000E81BF90BAD01481B590B4E175F0758F48D
:1000E0004D9148BB32BBEFE9FFE03197F1F700C01B
:1000F000000022BBE8CF089589E08BBB08958AE019
:100100008BBB089585E08BBB08951BBA08958FEFD4
:100110008ABB87BB81BB14BA0E94540080E690E082
:100120000E946000C3E0D0E085E0D82E02E010E03D
:100130009AE0C92EEE24E394F12C39E0B32E9E9B75
:1001400020C09E9B09C083B38F7331F480919E00C1
:1001500090919F00019739F583B3877081F1809169
:100160009E0090919F00029751F110939F00009381
:100170009E000E9454008DE790E00E946000CBBA80
:10018000DECF80919E0090919F00892BC1F210924A
:100190009F0010929E000E9454008BE690E00E9407
:1001A00060001BBACCCFF0929F00E0929E000E94AC
:1001B000540083E790E00E946000BBBACDCF83B3C8
:1001C000887309F4BCCF80919E0090919F000397A3
:1001D00009F4B5CFD0939F00C0939E000E945400B5
:1001E0008EE890E00E946000DBBAA9CFF894FFCFC0
:1001F00057656C636F6D652E2E2E0053544F502E35
:100200002E2E004D4F56494E472E2E2E005455523D
:100210004E494E472052494748542E2E2E005455E1
:0E022000524E494E47204C4546542E2E2E007D
:00000001FF
