:100000000C942A000C9447000C9447000C94470071
:100010000C9447000C9447000C9447000C94470044
:100020000C9447000C9459000C9447000C94470022
:100030000C9447000C9447000C9447000C94470024
:100040000C9447000C9447000C9447000C94470014
:100050000C94470011241FBECFE5D4E0DEBFCDBF16
:1000600010E0A0E6B0E0E8EBF1E002C005900D92F0
:10007000A836B107D9F720E0A8E6B0E001C01D928C
:10008000AF36B207E1F70E947E000C94DA000C94C0
:10009000000083B7846083BF12BE89B7816089BFC7
:1000A000109268001092690010926A0010926B0022
:1000B00008951F920F920FB60F9211248F939F9362
:1000C000AF93BF938091680090916900A0916A00FE
:1000D000B0916B000196A11DB11D809368009093B3
:1000E0006900A0936A00B0936B00BF91AF919F919C
:1000F0008F910F900FBE0F901F9018958FEF8ABBB6
:1001000014BA0E944900789421E043E050E083B3A0
:10011000843071F080916C00822780936C003FEFF7
:1001200083ED90E3315080409040E1F700C0000043
:100130008091680090916900A0916A00B0916B0075
:10014000CD97A105B10518F382B7893000F3E0918E
:100150006D00F0916E00EE0FFF1FE05AFF4F80819F
:100160008BBB30916C0080916D0090916E003323B9
:1001700051F0181619062CF050936E0040936D0044
:100180000FC0019709C0833091052CF010926E00CA
:1001900010926D0005C0019690936E0080936D00E3
:1001A00012BE109268001092690010926A001092BC
:0801B0006B00ADCFF894FFCF06
:0801B80009000A000600050021
:00000001FF
