:100000000C942A000C9447000C9447000C94470071
:100010000C9447000C9447000C9447000C94470044
:100020000C9447000C94A2000C9447000C944700D9
:100030000C9447000C9447000C9447000C94470024
:100040000C9447000C9447000C9447000C94470014
:100050000C94470011241FBECFE5D4E0DEBFCDBF16
:1000600010E0A0E6B0E0ECEDF3E002C005900D92E8
:10007000A039B107D9F720E0A0E9B0E001C01D9296
:10008000AD3AB207E1F70E9432010C94EC010C94F6
:10009000000080E886B9089527B1287F87709927E6
:1000A000822B87B9369A3699FECF84B195B10895DF
:1000B00085BB81E082BB8FE39CE90197F1F700C02B
:1000C000000012BA089581E00E94580086E00E9464
:1000D00058008CE00E94580088E30C945800CF939D
:1000E000DF93EC010E946300DE0195E084E0FE01F5
:1000F00001900020E9F73197EC1BFD0B9D012C1BB3
:100100003D0B2E173F0758F42D9125BB92BBEFE90D
:10011000FFE03197F1F700C0000082BBE8CFDF912C
:10012000CF91089583B7846083BF12BE89B7816081
:1001300089BF109291001092920010929300109239
:10014000940008951F920F920FB60F9211248F936F
:100150009F93AF93BF938091910090919200A09153
:100160009300B09194000196A11DB11D8093910060
:1001700090939200A0939300B0939400BF91AF919D
:100180009F918F910F900FBE0F901F901895CF9356
:10019000DF93CDB7DEB764970FB6F894DEBF0FBE1E
:1001A000CDBF8AE690E00E946F0089B3883009F4E1
:1001B00041C089B38230E9F4809160009091610080
:1001C000019690936100809360004AE050E0BE0188
:1001D0006F5F7F4F0E94AC01CE0101960E946F00BD
:1001E0002FEF83ED90E3215080409040E1F700C075
:1001F000000089B38430C9F680916000909161005D
:10020000019790936100809360004AE050E0BE0146
:100210006F5F7F4F0E94AC01CE0101960E946F007C
:100220002FEF83ED90E3215080409040E1F700C034
:100230000000BBCF8AE790E00E946F002FEF83EDB4
:1002400090E3215080409040E1F700C000006496A8
:100250000FB6F894DEBF0FBECDBFDF91CF910895EA
:100260000C94AC018FEF84BB81BB87BB1ABA0E9490
:10027000C7000E94920078940E94630080E886B9CB
:10028000C1E080E090E00E944C0020919700309106
:1002900098008217930731F180E090E00E944C00B3
:1002A00090939800809397004AE050E069E970E0ED
:1002B0000E94AC0186E890E00E946F0089E990E01E
:1002C0000E946F002091970030919800809160000B
:1002D00090916100281739071CF0C093900002C06C
:1002E000109290008091910090919200A0919300C3
:1002F000B0919400CD97A105B10518F280919000BE
:10030000882309F4BECF82B7893008F4BACFE091D0
:100310009500F0919600EE0FFF1FEE59FF4F808180
:1003200088BB8091950090919600833091052CF0C8
:10033000109296001092950005C001969093960039
:100340008093950012BE109291001092920010922C
:1003500093001092940095CF4532510520F442301D
:1003600010F00C94B701FB011082CB010895BB275C
:100370004A3031F4992322F4BDE2909581959F4F44
:100380000C94C301BB27FB015527AA27880F991F8F
:10039000AA1FA41710F0A41B83955051B9F7A05DB4
:1003A000AA3308F0A95DA193009779F7B111B19331
:1003B0001192CB010C94DC01DC01FC01672F7191DF
:1003C0007723E1F7329704C07C916D93708362913B
:0C03D000AE17BF07C8F30895F894FFCFE4
:1003DC00190009000A000600050044656661756C89
:1003EC00742074656D703D3235005375626D69749F
:1003FC0065642E2E2E0054656D70206973200000EC
:00000001FF
