:100000000C942A000C9447000C9447000C94470071
:100010000C9447000C9447000C9447000C94470044
:100020000C9447000C9447000C9447000C94470034
:100030000C9447000C9447000C9447000C94470024
:100040000C9447000C9447000C9447000C94470014
:100050000C94470011241FBECFE5D4E0DEBFCDBF16
:1000600010E0A0E6B0E0E8EDF1E002C005900D92EE
:10007000AA36B107D9F720E0AAE6B0E001C01D9288
:10008000A038B207E1F70E948B000C94EA000C94B0
:10009000000080E886B9089527B1287F87709927E6
:1000A000822B87B9369A3699FECF84B195B10895DF
:1000B00085BB81E082BB8FE39CE90197F1F700C02B
:1000C000000012BA0895DC0135E024E0FC01019043
:1000D0000020E9F73197E81BF90BAD01481B590BDC
:1000E0004E175F0758F44D9145BB32BBEFE9FFE077
:1000F0003197F1F700C0000022BBE8CF089581E0FE
:100100000E94580086E00E9458008CE00E9458002F
:1001100088E30C9458008FEF84BB81BB0E947F0062
:1001200080E886B980E090E00E944C0020916A004F
:1001300030916B0082179307A9F380E090E00E9452
:100140004C0090936B0080936A004AE06CE670E08C
:100150000E94B5000E947F0080E690E00E9463004C
:100160008CE690E00E946300DDCFBB274A3031F47B
:10017000992322F4BDE2909581959F4F0C94C10084
:10018000BB27FB015527AA27880F991FAA1FA41771
:1001900010F0A41B83955051B9F7A05DAA3308F065
:1001A000A95DA193009779F7B111B1931192CB0199
:1001B0000C94DA00DC01FC01672F71917723E1F7E1
:1001C000329704C07C916D9370836291AE17BF0724
:0801D000C8F30895F894FFCF75
:0A01D80054656D702069732000006B
:00000001FF
