:100000000C942A000C9447000C9447000C94470071
:100010000C9447000C9447000C9447000C94470044
:100020000C9465000C9476000C9447000C944700E7
:100030000C9447000C9447000C9447000C94470024
:100040000C9447000C9447000C9447000C94470014
:100050000C94470011241FBECFE5D4E0DEBFCDBF16
:1000600010E0A0E6B0E0EAEFF1E002C005900D92EA
:10007000AA36B107D9F720E0AAE6B0E001C01D9288
:10008000A137B207E1F70E9487000C94FB000C94A3
:100090000000EBE6F0E010821182128213820895D4
:1000A0008EB582608EBD1DBC1CBC89B7846089BFC3
:1000B00010927000089583B7826083BF12BE89B723
:1000C000816089BF10926F0008951F920F920FB642
:1000D0000F9211248F93809170008F5F8093700036
:1000E0008F910F900FBE0F901F9018951F920F9237
:1000F0000FB60F9211248F9380916F008F5F8093C2
:100100006F008F910F900FBE0F901F9018958FEF7B
:1001100084BB81BB81E082BB0E9450000E945B00D7
:1001200078940E944900C1E0D0E0809170008F3047
:10013000B0F18CB59DB58034924488F180916B000C
:10014000893040F010926B0080916C008F5F80933B
:100150006C0005C080916B008F5F80936B00809175
:100160006C00893038F010926C0080916D008F5FC8
:1001700080936D0080916D00893038F010926D0091
:1001800080916E008F5F80936E0080916E00893049
:1001900010F00E9449001DBC1CBC109270008091A0
:1001A0006F008E3410F282B7803208F4BECFE09137
:1001B0006A00F0E0E559FF4FE081F0E0E05AFF4FC0
:1001C000808185BB80916A009E0102C0220F331F8F
:1001D0008A95E2F722BB80916A00833018F0109272
:1001E0006A0005C080916A008F5F80936A0012BE2A
:0A01F00010926F009ACFF894FFCF31
:0A01FA00C0F9A4B0999282F8809039
:00000001FF
